{
  "contractName": "myNextFilm",
  "abi": [
    {
      "anonymous": false,
      "inputs": [
        {
          "indexed": true,
          "internalType": "address",
          "name": "previousOwner",
          "type": "address"
        },
        {
          "indexed": true,
          "internalType": "address",
          "name": "newOwner",
          "type": "address"
        }
      ],
      "name": "OwnershipTransferred",
      "type": "event"
    },
    {
      "anonymous": false,
      "inputs": [
        {
          "indexed": true,
          "internalType": "string",
          "name": "uploaderName",
          "type": "string"
        },
        {
          "indexed": true,
          "internalType": "string",
          "name": "fileName",
          "type": "string"
        },
        {
          "indexed": true,
          "internalType": "uint256",
          "name": "timeOfUpload",
          "type": "uint256"
        }
      ],
      "name": "uploadDetails",
      "type": "event"
    },
    {
      "stateMutability": "payable",
      "type": "fallback",
      "payable": true
    },
    {
      "inputs": [
        {
          "internalType": "bytes32",
          "name": "",
          "type": "bytes32"
        },
        {
          "internalType": "uint256",
          "name": "",
          "type": "uint256"
        }
      ],
      "name": "bookConvert",
      "outputs": [
        {
          "internalType": "bytes",
          "name": "",
          "type": "bytes"
        }
      ],
      "stateMutability": "view",
      "type": "function",
      "constant": true
    },
    {
      "inputs": [
        {
          "internalType": "bytes32",
          "name": "",
          "type": "bytes32"
        }
      ],
      "name": "characterIntroduction",
      "outputs": [
        {
          "internalType": "bytes",
          "name": "",
          "type": "bytes"
        }
      ],
      "stateMutability": "view",
      "type": "function",
      "constant": true
    },
    {
      "inputs": [
        {
          "internalType": "bytes32",
          "name": "",
          "type": "bytes32"
        }
      ],
      "name": "footage",
      "outputs": [
        {
          "internalType": "bytes",
          "name": "",
          "type": "bytes"
        }
      ],
      "stateMutability": "view",
      "type": "function",
      "constant": true
    },
    {
      "inputs": [
        {
          "internalType": "bytes32",
          "name": "",
          "type": "bytes32"
        }
      ],
      "name": "fullNarration",
      "outputs": [
        {
          "internalType": "bytes",
          "name": "",
          "type": "bytes"
        }
      ],
      "stateMutability": "view",
      "type": "function",
      "constant": true
    },
    {
      "inputs": [
        {
          "internalType": "bytes32",
          "name": "",
          "type": "bytes32"
        }
      ],
      "name": "fullScript",
      "outputs": [
        {
          "internalType": "bytes",
          "name": "",
          "type": "bytes"
        }
      ],
      "stateMutability": "view",
      "type": "function",
      "constant": true
    },
    {
      "inputs": [
        {
          "internalType": "bytes32",
          "name": "",
          "type": "bytes32"
        }
      ],
      "name": "onePager",
      "outputs": [
        {
          "internalType": "bytes",
          "name": "",
          "type": "bytes"
        }
      ],
      "stateMutability": "view",
      "type": "function",
      "constant": true
    },
    {
      "inputs": [],
      "name": "owner",
      "outputs": [
        {
          "internalType": "address",
          "name": "",
          "type": "address"
        }
      ],
      "stateMutability": "view",
      "type": "function",
      "constant": true
    },
    {
      "inputs": [
        {
          "internalType": "bytes32",
          "name": "",
          "type": "bytes32"
        }
      ],
      "name": "pitchDeck",
      "outputs": [
        {
          "internalType": "bytes",
          "name": "",
          "type": "bytes"
        }
      ],
      "stateMutability": "view",
      "type": "function",
      "constant": true
    },
    {
      "inputs": [
        {
          "internalType": "bytes32",
          "name": "",
          "type": "bytes32"
        }
      ],
      "name": "pitchDeckConvert",
      "outputs": [
        {
          "internalType": "bytes",
          "name": "",
          "type": "bytes"
        }
      ],
      "stateMutability": "view",
      "type": "function",
      "constant": true
    },
    {
      "inputs": [
        {
          "internalType": "bytes32",
          "name": "",
          "type": "bytes32"
        },
        {
          "internalType": "uint256",
          "name": "",
          "type": "uint256"
        }
      ],
      "name": "pptConvert",
      "outputs": [
        {
          "internalType": "bytes",
          "name": "",
          "type": "bytes"
        }
      ],
      "stateMutability": "view",
      "type": "function",
      "constant": true
    },
    {
      "inputs": [
        {
          "internalType": "bytes32",
          "name": "",
          "type": "bytes32"
        }
      ],
      "name": "previewChamber",
      "outputs": [
        {
          "internalType": "bytes",
          "name": "",
          "type": "bytes"
        }
      ],
      "stateMutability": "view",
      "type": "function",
      "constant": true
    },
    {
      "inputs": [
        {
          "internalType": "bytes32",
          "name": "",
          "type": "bytes32"
        }
      ],
      "name": "projectCenter",
      "outputs": [
        {
          "internalType": "bytes",
          "name": "",
          "type": "bytes"
        }
      ],
      "stateMutability": "view",
      "type": "function",
      "constant": true
    },
    {
      "inputs": [],
      "name": "renounceOwnership",
      "outputs": [],
      "stateMutability": "nonpayable",
      "type": "function"
    },
    {
      "inputs": [
        {
          "internalType": "bytes32",
          "name": "",
          "type": "bytes32"
        }
      ],
      "name": "sampleNarration",
      "outputs": [
        {
          "internalType": "bytes",
          "name": "",
          "type": "bytes"
        }
      ],
      "stateMutability": "view",
      "type": "function",
      "constant": true
    },
    {
      "inputs": [
        {
          "internalType": "bytes32",
          "name": "",
          "type": "bytes32"
        }
      ],
      "name": "sampleScript",
      "outputs": [
        {
          "internalType": "bytes",
          "name": "",
          "type": "bytes"
        }
      ],
      "stateMutability": "view",
      "type": "function",
      "constant": true
    },
    {
      "inputs": [
        {
          "internalType": "bytes32",
          "name": "",
          "type": "bytes32"
        }
      ],
      "name": "scriptAnalysis",
      "outputs": [
        {
          "internalType": "bytes",
          "name": "",
          "type": "bytes"
        }
      ],
      "stateMutability": "view",
      "type": "function",
      "constant": true
    },
    {
      "inputs": [
        {
          "internalType": "bytes32",
          "name": "",
          "type": "bytes32"
        },
        {
          "internalType": "uint256",
          "name": "",
          "type": "uint256"
        }
      ],
      "name": "scriptConvert",
      "outputs": [
        {
          "internalType": "bytes",
          "name": "",
          "type": "bytes"
        }
      ],
      "stateMutability": "view",
      "type": "function",
      "constant": true
    },
    {
      "inputs": [
        {
          "internalType": "bytes32",
          "name": "",
          "type": "bytes32"
        }
      ],
      "name": "scriptPad",
      "outputs": [
        {
          "internalType": "bytes",
          "name": "",
          "type": "bytes"
        }
      ],
      "stateMutability": "view",
      "type": "function",
      "constant": true
    },
    {
      "inputs": [
        {
          "internalType": "bytes32",
          "name": "",
          "type": "bytes32"
        }
      ],
      "name": "story",
      "outputs": [
        {
          "internalType": "bytes",
          "name": "",
          "type": "bytes"
        }
      ],
      "stateMutability": "view",
      "type": "function",
      "constant": true
    },
    {
      "inputs": [
        {
          "internalType": "bytes32",
          "name": "",
          "type": "bytes32"
        },
        {
          "internalType": "uint256",
          "name": "",
          "type": "uint256"
        }
      ],
      "name": "storyConvert",
      "outputs": [
        {
          "internalType": "bytes",
          "name": "",
          "type": "bytes"
        }
      ],
      "stateMutability": "view",
      "type": "function",
      "constant": true
    },
    {
      "inputs": [
        {
          "internalType": "bytes32",
          "name": "",
          "type": "bytes32"
        }
      ],
      "name": "subscribe",
      "outputs": [
        {
          "internalType": "string",
          "name": "subscriptionStartTime",
          "type": "string"
        },
        {
          "internalType": "string",
          "name": "subscriptionEndTime",
          "type": "string"
        }
      ],
      "stateMutability": "view",
      "type": "function",
      "constant": true
    },
    {
      "inputs": [
        {
          "internalType": "address",
          "name": "newOwner",
          "type": "address"
        }
      ],
      "name": "transferOwnership",
      "outputs": [],
      "stateMutability": "nonpayable",
      "type": "function"
    },
    {
      "inputs": [
        {
          "internalType": "string",
          "name": "",
          "type": "string"
        },
        {
          "internalType": "string",
          "name": "",
          "type": "string"
        },
        {
          "internalType": "uint256",
          "name": "",
          "type": "uint256"
        }
      ],
      "name": "uploadFileStatus",
      "outputs": [
        {
          "internalType": "bool",
          "name": "",
          "type": "bool"
        }
      ],
      "stateMutability": "view",
      "type": "function",
      "constant": true
    },
    {
      "inputs": [
        {
          "internalType": "bytes32",
          "name": "",
          "type": "bytes32"
        }
      ],
      "name": "viewerLoungeLink",
      "outputs": [
        {
          "internalType": "bytes",
          "name": "",
          "type": "bytes"
        }
      ],
      "stateMutability": "view",
      "type": "function",
      "constant": true
    },
    {
      "inputs": [
        {
          "internalType": "bytes32",
          "name": "",
          "type": "bytes32"
        }
      ],
      "name": "viewerLoungeVideo",
      "outputs": [
        {
          "internalType": "bytes",
          "name": "",
          "type": "bytes"
        }
      ],
      "stateMutability": "view",
      "type": "function",
      "constant": true
    },
    {
      "stateMutability": "payable",
      "type": "receive",
      "payable": true
    },
    {
      "inputs": [
        {
          "internalType": "bytes32",
          "name": "_onePagerCombine",
          "type": "bytes32"
        },
        {
          "internalType": "bytes",
          "name": "_uri",
          "type": "bytes"
        },
        {
          "internalType": "string",
          "name": "_userName",
          "type": "string"
        },
        {
          "internalType": "string",
          "name": "_fileName",
          "type": "string"
        },
        {
          "internalType": "uint256",
          "name": "_timeOfUpload",
          "type": "uint256"
        }
      ],
      "name": "createOnePager",
      "outputs": [],
      "stateMutability": "nonpayable",
      "type": "function"
    },
    {
      "inputs": [
        {
          "internalType": "bytes32",
          "name": "_storyCombine",
          "type": "bytes32"
        },
        {
          "internalType": "bytes",
          "name": "_uri",
          "type": "bytes"
        },
        {
          "internalType": "string",
          "name": "_userName",
          "type": "string"
        },
        {
          "internalType": "string",
          "name": "_fileName",
          "type": "string"
        },
        {
          "internalType": "uint256",
          "name": "_timeOfUpload",
          "type": "uint256"
        }
      ],
      "name": "createStory",
      "outputs": [],
      "stateMutability": "nonpayable",
      "type": "function"
    },
    {
      "inputs": [
        {
          "internalType": "bytes32",
          "name": "_combineSampleScript",
          "type": "bytes32"
        },
        {
          "internalType": "bytes",
          "name": "_uri",
          "type": "bytes"
        },
        {
          "internalType": "string",
          "name": "_userName",
          "type": "string"
        },
        {
          "internalType": "string",
          "name": "_fileName",
          "type": "string"
        },
        {
          "internalType": "uint256",
          "name": "_timeOfUpload",
          "type": "uint256"
        }
      ],
      "name": "createSampleScript",
      "outputs": [],
      "stateMutability": "nonpayable",
      "type": "function"
    },
    {
      "inputs": [
        {
          "internalType": "bytes32",
          "name": "_combineFullScript",
          "type": "bytes32"
        },
        {
          "internalType": "bytes",
          "name": "_uri",
          "type": "bytes"
        },
        {
          "internalType": "string",
          "name": "_userName",
          "type": "string"
        },
        {
          "internalType": "string",
          "name": "_fileName",
          "type": "string"
        },
        {
          "internalType": "uint256",
          "name": "_timeOfUpload",
          "type": "uint256"
        }
      ],
      "name": "createFullScript",
      "outputs": [],
      "stateMutability": "nonpayable",
      "type": "function"
    },
    {
      "inputs": [
        {
          "internalType": "bytes32",
          "name": "_combineFootage",
          "type": "bytes32"
        },
        {
          "internalType": "bytes",
          "name": "_uri",
          "type": "bytes"
        },
        {
          "internalType": "string",
          "name": "_userName",
          "type": "string"
        },
        {
          "internalType": "string",
          "name": "_fileName",
          "type": "string"
        },
        {
          "internalType": "uint256",
          "name": "_timeOfUpload",
          "type": "uint256"
        }
      ],
      "name": "createFootage",
      "outputs": [],
      "stateMutability": "nonpayable",
      "type": "function"
    },
    {
      "inputs": [
        {
          "internalType": "bytes32",
          "name": "_combinePitchDeck",
          "type": "bytes32"
        },
        {
          "internalType": "bytes",
          "name": "_uri",
          "type": "bytes"
        },
        {
          "internalType": "string",
          "name": "_userName",
          "type": "string"
        },
        {
          "internalType": "string",
          "name": "_fileName",
          "type": "string"
        },
        {
          "internalType": "uint256",
          "name": "_timeOfUpload",
          "type": "uint256"
        }
      ],
      "name": "createPitchDeck",
      "outputs": [],
      "stateMutability": "nonpayable",
      "type": "function"
    },
    {
      "inputs": [
        {
          "internalType": "bytes32",
          "name": "_combineSampleNarration",
          "type": "bytes32"
        },
        {
          "internalType": "bytes",
          "name": "_uri",
          "type": "bytes"
        },
        {
          "internalType": "string",
          "name": "_userName",
          "type": "string"
        },
        {
          "internalType": "string",
          "name": "_fileName",
          "type": "string"
        },
        {
          "internalType": "uint256",
          "name": "_timeOfUpload",
          "type": "uint256"
        }
      ],
      "name": "createSampleNarration",
      "outputs": [],
      "stateMutability": "nonpayable",
      "type": "function"
    },
    {
      "inputs": [
        {
          "internalType": "bytes32",
          "name": "_combineFullNarration",
          "type": "bytes32"
        },
        {
          "internalType": "bytes",
          "name": "_uri",
          "type": "bytes"
        },
        {
          "internalType": "string",
          "name": "_userName",
          "type": "string"
        },
        {
          "internalType": "string",
          "name": "_fileName",
          "type": "string"
        },
        {
          "internalType": "uint256",
          "name": "_timeOfUpload",
          "type": "uint256"
        }
      ],
      "name": "createFullNarration",
      "outputs": [],
      "stateMutability": "nonpayable",
      "type": "function"
    },
    {
      "inputs": [
        {
          "internalType": "bytes32",
          "name": "_combineScriptAnalysis",
          "type": "bytes32"
        },
        {
          "internalType": "bytes",
          "name": "_uri",
          "type": "bytes"
        },
        {
          "internalType": "string",
          "name": "_userName",
          "type": "string"
        },
        {
          "internalType": "string",
          "name": "_fileName",
          "type": "string"
        },
        {
          "internalType": "uint256",
          "name": "_timeOfUpload",
          "type": "uint256"
        }
      ],
      "name": "createScriptAnalysis",
      "outputs": [],
      "stateMutability": "nonpayable",
      "type": "function"
    },
    {
      "inputs": [
        {
          "internalType": "bytes32",
          "name": "_combineCharacterIntro",
          "type": "bytes32"
        },
        {
          "internalType": "bytes",
          "name": "_uri",
          "type": "bytes"
        },
        {
          "internalType": "string",
          "name": "_userName",
          "type": "string"
        },
        {
          "internalType": "string",
          "name": "_fileName",
          "type": "string"
        },
        {
          "internalType": "uint256",
          "name": "_timeOfUpload",
          "type": "uint256"
        }
      ],
      "name": "createCharacterIntro",
      "outputs": [],
      "stateMutability": "nonpayable",
      "type": "function"
    },
    {
      "inputs": [
        {
          "internalType": "bytes32",
          "name": "_pptCombine",
          "type": "bytes32"
        },
        {
          "internalType": "bytes[2]",
          "name": "_uri",
          "type": "bytes[2]"
        },
        {
          "internalType": "string",
          "name": "_userName",
          "type": "string"
        },
        {
          "internalType": "string",
          "name": "_fileName",
          "type": "string"
        },
        {
          "internalType": "uint256",
          "name": "_timeOfUpload",
          "type": "uint256"
        }
      ],
      "name": "createPPTconversion",
      "outputs": [],
      "stateMutability": "nonpayable",
      "type": "function"
    },
    {
      "inputs": [
        {
          "internalType": "bytes32",
          "name": "_storyCombine",
          "type": "bytes32"
        },
        {
          "internalType": "bytes[2]",
          "name": "_uri",
          "type": "bytes[2]"
        },
        {
          "internalType": "string",
          "name": "_userName",
          "type": "string"
        },
        {
          "internalType": "string",
          "name": "_fileName",
          "type": "string"
        },
        {
          "internalType": "uint256",
          "name": "_timeOfUpload",
          "type": "uint256"
        }
      ],
      "name": "createStoryConversion",
      "outputs": [],
      "stateMutability": "nonpayable",
      "type": "function"
    },
    {
      "inputs": [
        {
          "internalType": "bytes32",
          "name": "_bookCombine",
          "type": "bytes32"
        },
        {
          "internalType": "bytes[2]",
          "name": "_uri",
          "type": "bytes[2]"
        },
        {
          "internalType": "string",
          "name": "_userName",
          "type": "string"
        },
        {
          "internalType": "string",
          "name": "_fileName",
          "type": "string"
        },
        {
          "internalType": "uint256",
          "name": "_timeOfUpload",
          "type": "uint256"
        }
      ],
      "name": "createBookConversion",
      "outputs": [],
      "stateMutability": "nonpayable",
      "type": "function"
    },
    {
      "inputs": [
        {
          "internalType": "bytes32",
          "name": "_scriptCombine",
          "type": "bytes32"
        },
        {
          "internalType": "bytes[2]",
          "name": "_uri",
          "type": "bytes[2]"
        },
        {
          "internalType": "string",
          "name": "_userName",
          "type": "string"
        },
        {
          "internalType": "string",
          "name": "_fileName",
          "type": "string"
        },
        {
          "internalType": "uint256",
          "name": "_timeOfUpload",
          "type": "uint256"
        }
      ],
      "name": "createScriptConversion",
      "outputs": [],
      "stateMutability": "nonpayable",
      "type": "function"
    },
    {
      "inputs": [
        {
          "internalType": "bytes32",
          "name": "_pitchDeckCombine",
          "type": "bytes32"
        },
        {
          "internalType": "bytes",
          "name": "_uri",
          "type": "bytes"
        },
        {
          "internalType": "string",
          "name": "_userName",
          "type": "string"
        },
        {
          "internalType": "string",
          "name": "_fileName",
          "type": "string"
        },
        {
          "internalType": "uint256",
          "name": "_timeOfUpload",
          "type": "uint256"
        }
      ],
      "name": "createPitchDeckConversion",
      "outputs": [],
      "stateMutability": "nonpayable",
      "type": "function"
    },
    {
      "inputs": [
        {
          "internalType": "bytes32",
          "name": "_viewerLoungeVideoCombine",
          "type": "bytes32"
        },
        {
          "internalType": "bytes",
          "name": "_uri",
          "type": "bytes"
        },
        {
          "internalType": "string",
          "name": "_userName",
          "type": "string"
        },
        {
          "internalType": "string",
          "name": "_fileName",
          "type": "string"
        },
        {
          "internalType": "uint256",
          "name": "_timeOfUpload",
          "type": "uint256"
        }
      ],
      "name": "createViewerLoungeForVideo",
      "outputs": [],
      "stateMutability": "nonpayable",
      "type": "function"
    },
    {
      "inputs": [
        {
          "internalType": "bytes32",
          "name": "_viewerLoungeLinkCombine",
          "type": "bytes32"
        },
        {
          "internalType": "bytes",
          "name": "_uri",
          "type": "bytes"
        },
        {
          "internalType": "string",
          "name": "_userName",
          "type": "string"
        },
        {
          "internalType": "string",
          "name": "_fileName",
          "type": "string"
        },
        {
          "internalType": "uint256",
          "name": "_timeOfUpload",
          "type": "uint256"
        }
      ],
      "name": "createviewerLoungeForLink",
      "outputs": [],
      "stateMutability": "nonpayable",
      "type": "function"
    },
    {
      "inputs": [
        {
          "internalType": "bytes32",
          "name": "_scriptPadCombine",
          "type": "bytes32"
        },
        {
          "internalType": "bytes",
          "name": "_uri",
          "type": "bytes"
        },
        {
          "internalType": "string",
          "name": "_userName",
          "type": "string"
        },
        {
          "internalType": "string",
          "name": "_fileName",
          "type": "string"
        },
        {
          "internalType": "uint256",
          "name": "_timeOfUpload",
          "type": "uint256"
        }
      ],
      "name": "createScriptPad",
      "outputs": [],
      "stateMutability": "nonpayable",
      "type": "function"
    },
    {
      "inputs": [
        {
          "internalType": "bytes32",
          "name": "_previewChamberCombine",
          "type": "bytes32"
        },
        {
          "internalType": "bytes",
          "name": "_uri",
          "type": "bytes"
        },
        {
          "internalType": "string",
          "name": "_userName",
          "type": "string"
        },
        {
          "internalType": "string",
          "name": "_fileName",
          "type": "string"
        },
        {
          "internalType": "uint256",
          "name": "_timeOfUpload",
          "type": "uint256"
        }
      ],
      "name": "createPreviewChamber",
      "outputs": [],
      "stateMutability": "nonpayable",
      "type": "function"
    },
    {
      "inputs": [
        {
          "internalType": "bytes32",
          "name": "_projectCenterCombine",
          "type": "bytes32"
        },
        {
          "internalType": "bytes",
          "name": "_uri",
          "type": "bytes"
        },
        {
          "internalType": "string",
          "name": "_userName",
          "type": "string"
        },
        {
          "internalType": "string",
          "name": "_fileName",
          "type": "string"
        },
        {
          "internalType": "uint256",
          "name": "_timeOfUpload",
          "type": "uint256"
        }
      ],
      "name": "createProjectCenter",
      "outputs": [],
      "stateMutability": "nonpayable",
      "type": "function"
    },
    {
      "inputs": [
        {
          "internalType": "bytes32",
          "name": "_subscriptionCombine",
          "type": "bytes32"
        },
        {
          "internalType": "string",
          "name": "startDate",
          "type": "string"
        },
        {
          "internalType": "string",
          "name": "endDate",
          "type": "string"
        },
        {
          "internalType": "string",
          "name": "_userName",
          "type": "string"
        },
        {
          "internalType": "string",
          "name": "_fileName",
          "type": "string"
        },
        {
          "internalType": "uint256",
          "name": "_timeOfUpload",
          "type": "uint256"
        }
      ],
      "name": "createSubscription",
      "outputs": [],
      "stateMutability": "nonpayable",
      "type": "function"
    },
    {
      "inputs": [
        {
          "internalType": "string",
          "name": "_email",
          "type": "string"
        },
        {
          "internalType": "string",
          "name": "_previewName",
          "type": "string"
        },
        {
          "internalType": "uint256",
          "name": "_timeStamp",
          "type": "uint256"
        }
      ],
      "name": "showOnePager",
      "outputs": [
        {
          "internalType": "bytes",
          "name": "",
          "type": "bytes"
        }
      ],
      "stateMutability": "view",
      "type": "function",
      "constant": true
    },
    {
      "inputs": [
        {
          "internalType": "string",
          "name": "_email",
          "type": "string"
        },
        {
          "internalType": "string",
          "name": "_previewName",
          "type": "string"
        },
        {
          "internalType": "uint256",
          "name": "_timeStamp",
          "type": "uint256"
        }
      ],
      "name": "showStory",
      "outputs": [
        {
          "internalType": "bytes",
          "name": "",
          "type": "bytes"
        }
      ],
      "stateMutability": "view",
      "type": "function",
      "constant": true
    },
    {
      "inputs": [
        {
          "internalType": "string",
          "name": "_email",
          "type": "string"
        },
        {
          "internalType": "string",
          "name": "_previewName",
          "type": "string"
        },
        {
          "internalType": "uint256",
          "name": "_timeStamp",
          "type": "uint256"
        }
      ],
      "name": "showSampleScript",
      "outputs": [
        {
          "internalType": "bytes",
          "name": "",
          "type": "bytes"
        }
      ],
      "stateMutability": "view",
      "type": "function",
      "constant": true
    },
    {
      "inputs": [
        {
          "internalType": "string",
          "name": "_email",
          "type": "string"
        },
        {
          "internalType": "string",
          "name": "_previewName",
          "type": "string"
        },
        {
          "internalType": "uint256",
          "name": "_timeStamp",
          "type": "uint256"
        }
      ],
      "name": "showFullScript",
      "outputs": [
        {
          "internalType": "bytes",
          "name": "",
          "type": "bytes"
        }
      ],
      "stateMutability": "view",
      "type": "function",
      "constant": true
    },
    {
      "inputs": [
        {
          "internalType": "string",
          "name": "_email",
          "type": "string"
        },
        {
          "internalType": "string",
          "name": "_previewName",
          "type": "string"
        },
        {
          "internalType": "uint256",
          "name": "_timeStamp",
          "type": "uint256"
        }
      ],
      "name": "showFootage",
      "outputs": [
        {
          "internalType": "bytes",
          "name": "",
          "type": "bytes"
        }
      ],
      "stateMutability": "view",
      "type": "function",
      "constant": true
    },
    {
      "inputs": [
        {
          "internalType": "string",
          "name": "_email",
          "type": "string"
        },
        {
          "internalType": "string",
          "name": "_previewName",
          "type": "string"
        },
        {
          "internalType": "uint256",
          "name": "_timeStamp",
          "type": "uint256"
        }
      ],
      "name": "showPitchDeck",
      "outputs": [
        {
          "internalType": "bytes",
          "name": "",
          "type": "bytes"
        }
      ],
      "stateMutability": "view",
      "type": "function",
      "constant": true
    },
    {
      "inputs": [
        {
          "internalType": "string",
          "name": "_email",
          "type": "string"
        },
        {
          "internalType": "string",
          "name": "_previewName",
          "type": "string"
        },
        {
          "internalType": "uint256",
          "name": "_timeStamp",
          "type": "uint256"
        }
      ],
      "name": "showSampleNarration",
      "outputs": [
        {
          "internalType": "bytes",
          "name": "",
          "type": "bytes"
        }
      ],
      "stateMutability": "view",
      "type": "function",
      "constant": true
    },
    {
      "inputs": [
        {
          "internalType": "string",
          "name": "_email",
          "type": "string"
        },
        {
          "internalType": "string",
          "name": "_previewName",
          "type": "string"
        },
        {
          "internalType": "uint256",
          "name": "_timeStamp",
          "type": "uint256"
        }
      ],
      "name": "showFullNarration",
      "outputs": [
        {
          "internalType": "bytes",
          "name": "",
          "type": "bytes"
        }
      ],
      "stateMutability": "view",
      "type": "function",
      "constant": true
    },
    {
      "inputs": [
        {
          "internalType": "string",
          "name": "_email",
          "type": "string"
        },
        {
          "internalType": "string",
          "name": "_previewName",
          "type": "string"
        },
        {
          "internalType": "uint256",
          "name": "_timeStamp",
          "type": "uint256"
        }
      ],
      "name": "showScriptAnalysis",
      "outputs": [
        {
          "internalType": "bytes",
          "name": "",
          "type": "bytes"
        }
      ],
      "stateMutability": "view",
      "type": "function",
      "constant": true
    },
    {
      "inputs": [
        {
          "internalType": "string",
          "name": "_email",
          "type": "string"
        },
        {
          "internalType": "string",
          "name": "_previewName",
          "type": "string"
        },
        {
          "internalType": "uint256",
          "name": "_timeStamp",
          "type": "uint256"
        }
      ],
      "name": "showCharacterIntro",
      "outputs": [
        {
          "internalType": "bytes",
          "name": "",
          "type": "bytes"
        }
      ],
      "stateMutability": "view",
      "type": "function",
      "constant": true
    },
    {
      "inputs": [
        {
          "internalType": "string",
          "name": "_email",
          "type": "string"
        },
        {
          "internalType": "string",
          "name": "_previewName",
          "type": "string"
        },
        {
          "internalType": "uint256",
          "name": "_timeStamp",
          "type": "uint256"
        }
      ],
      "name": "showPPTconvert",
      "outputs": [
        {
          "internalType": "bytes[2]",
          "name": "",
          "type": "bytes[2]"
        }
      ],
      "stateMutability": "view",
      "type": "function",
      "constant": true
    },
    {
      "inputs": [
        {
          "internalType": "string",
          "name": "_email",
          "type": "string"
        },
        {
          "internalType": "string",
          "name": "_previewName",
          "type": "string"
        },
        {
          "internalType": "uint256",
          "name": "_timeStamp",
          "type": "uint256"
        }
      ],
      "name": "showStoryConvert",
      "outputs": [
        {
          "internalType": "bytes[2]",
          "name": "",
          "type": "bytes[2]"
        }
      ],
      "stateMutability": "view",
      "type": "function",
      "constant": true
    },
    {
      "inputs": [
        {
          "internalType": "string",
          "name": "_email",
          "type": "string"
        },
        {
          "internalType": "string",
          "name": "_previewName",
          "type": "string"
        },
        {
          "internalType": "uint256",
          "name": "_timeStamp",
          "type": "uint256"
        }
      ],
      "name": "showBookConvert",
      "outputs": [
        {
          "internalType": "bytes[2]",
          "name": "",
          "type": "bytes[2]"
        }
      ],
      "stateMutability": "view",
      "type": "function",
      "constant": true
    },
    {
      "inputs": [
        {
          "internalType": "string",
          "name": "_email",
          "type": "string"
        },
        {
          "internalType": "string",
          "name": "_previewName",
          "type": "string"
        },
        {
          "internalType": "uint256",
          "name": "_timeStamp",
          "type": "uint256"
        }
      ],
      "name": "showScriptConvert",
      "outputs": [
        {
          "internalType": "bytes[2]",
          "name": "",
          "type": "bytes[2]"
        }
      ],
      "stateMutability": "view",
      "type": "function",
      "constant": true
    },
    {
      "inputs": [
        {
          "internalType": "string",
          "name": "_email",
          "type": "string"
        },
        {
          "internalType": "string",
          "name": "_previewName",
          "type": "string"
        },
        {
          "internalType": "uint256",
          "name": "_timeStamp",
          "type": "uint256"
        }
      ],
      "name": "showPitchDeckConvert",
      "outputs": [
        {
          "internalType": "bytes",
          "name": "",
          "type": "bytes"
        }
      ],
      "stateMutability": "view",
      "type": "function",
      "constant": true
    },
    {
      "inputs": [
        {
          "internalType": "string",
          "name": "_email",
          "type": "string"
        },
        {
          "internalType": "string",
          "name": "_previewName",
          "type": "string"
        },
        {
          "internalType": "uint256",
          "name": "_timeStamp",
          "type": "uint256"
        }
      ],
      "name": "showViewerLoungeVideo",
      "outputs": [
        {
          "internalType": "bytes",
          "name": "",
          "type": "bytes"
        }
      ],
      "stateMutability": "view",
      "type": "function",
      "constant": true
    },
    {
      "inputs": [
        {
          "internalType": "string",
          "name": "_email",
          "type": "string"
        },
        {
          "internalType": "string",
          "name": "_previewName",
          "type": "string"
        },
        {
          "internalType": "uint256",
          "name": "_timeStamp",
          "type": "uint256"
        }
      ],
      "name": "showViewerLoungeLink",
      "outputs": [
        {
          "internalType": "bytes",
          "name": "",
          "type": "bytes"
        }
      ],
      "stateMutability": "view",
      "type": "function",
      "constant": true
    },
    {
      "inputs": [
        {
          "internalType": "string",
          "name": "_email",
          "type": "string"
        },
        {
          "internalType": "string",
          "name": "_previewName",
          "type": "string"
        },
        {
          "internalType": "uint256",
          "name": "_timeStamp",
          "type": "uint256"
        }
      ],
      "name": "showScriptPad",
      "outputs": [
        {
          "internalType": "bytes",
          "name": "",
          "type": "bytes"
        }
      ],
      "stateMutability": "view",
      "type": "function",
      "constant": true
    },
    {
      "inputs": [
        {
          "internalType": "string",
          "name": "_email",
          "type": "string"
        },
        {
          "internalType": "string",
          "name": "_previewName",
          "type": "string"
        },
        {
          "internalType": "uint256",
          "name": "_timeStamp",
          "type": "uint256"
        }
      ],
      "name": "showPreviewChamber",
      "outputs": [
        {
          "internalType": "bytes",
          "name": "",
          "type": "bytes"
        }
      ],
      "stateMutability": "view",
      "type": "function",
      "constant": true
    },
    {
      "inputs": [
        {
          "internalType": "string",
          "name": "_email",
          "type": "string"
        },
        {
          "internalType": "string",
          "name": "_previewName",
          "type": "string"
        },
        {
          "internalType": "uint256",
          "name": "_timeStamp",
          "type": "uint256"
        }
      ],
      "name": "showprojectCenter",
      "outputs": [
        {
          "internalType": "bytes",
          "name": "",
          "type": "bytes"
        }
      ],
      "stateMutability": "view",
      "type": "function",
      "constant": true
    },
    {
      "inputs": [
        {
          "internalType": "string",
          "name": "_email",
          "type": "string"
        },
        {
          "internalType": "string",
          "name": "_previewName",
          "type": "string"
        },
        {
          "internalType": "uint256",
          "name": "_timeStamp",
          "type": "uint256"
        }
      ],
      "name": "showSubscription",
      "outputs": [
        {
          "components": [
            {
              "internalType": "string",
              "name": "subscriptionStartTime",
              "type": "string"
            },
            {
              "internalType": "string",
              "name": "subscriptionEndTime",
              "type": "string"
            }
          ],
          "internalType": "struct myNextFilm.subscription",
          "name": "",
          "type": "tuple"
        }
      ],
      "stateMutability": "view",
      "type": "function",
      "constant": true
    },
    {
      "inputs": [
        {
          "internalType": "bytes32",
          "name": "_email",
          "type": "bytes32"
        },
        {
          "internalType": "bytes32",
          "name": "_previewName",
          "type": "bytes32"
        },
        {
          "internalType": "string",
          "name": "_fileFrom",
          "type": "string"
        },
        {
          "internalType": "bytes32",
          "name": "_onePagerCombine",
          "type": "bytes32"
        },
        {
          "internalType": "string",
          "name": "_userName",
          "type": "string"
        },
        {
          "internalType": "string",
          "name": "_fileName",
          "type": "string"
        },
        {
          "internalType": "uint256",
          "name": "_timeOfUpload",
          "type": "uint256"
        }
      ],
      "name": "changeDocumentOwnership",
      "outputs": [],
      "stateMutability": "nonpayable",
      "type": "function"
    },
    {
      "inputs": [],
      "name": "remove",
      "outputs": [],
      "stateMutability": "nonpayable",
      "type": "function"
    }
  ],
  "bytecode": "0x60806040523480156200001157600080fd5b506200001d3362000023565b62000073565b600080546001600160a01b038381166001600160a01b0319831681178455604051919092169283917f8be0079c531659141344cd1fd0a4f28419497f9722a3daafe3b4186f6b6457e09190a35050565b6142da80620000836000396000f3fe6080604052600436106103fe5760003560e01c8063767c0e3211610213578063aa8384d511610123578063e50e3437116100ab578063f6ffe4f01161007a578063f6ffe4f014610c8e578063f7bdffb714610cae578063fbdd97d414610d20578063fc96bae214610d40578063fca8ba7c14610d605761044b565b8063e50e343714610c0e578063e86d8e4014610c2e578063f2fde38b14610c4e578063f5fc22e714610c6e5761044b565b8063bf0c0264116100f2578063bf0c026414610b6e578063d64b3d3d14610b8e578063dbd5a6bd14610bae578063ddfc321414610bce578063df99291014610bee5761044b565b8063aa8384d514610aee578063b8bc7a6014610b0e578063bbdc416714610b2e578063bed9b1be14610b4e5761044b565b806387ab3c74116101a657806392ec0dd41161017557806392ec0dd414610a595780639fc4259614610a795780639fe25b9814610a99578063a0b3907914610ab9578063a7f4377914610ad95761044b565b806387ab3c74146109d15780638da5cb5b146109f15780638ed9ba6514610a195780639095b44e14610a395761044b565b8063819794a4116101e2578063819794a41461095157806383c891241461097157806383edb2961461099157806384c73251146109b15761044b565b8063767c0e32146108d157806377f390f6146108f15780637b736660146109115780637c969b64146109315761044b565b80633a6e20961161030e57806358bd3802116102a15780636969b515116102705780636969b5151461082f5780636ba4368f1461084f578063715018a61461086f578063735cfeff1461088457806373f1e569146108a45761044b565b806358bd3802146107af5780636009ba4e146107cf57806365984315146107ef5780636643caf31461080f5761044b565b80634553991f116102dd5780634553991f1461072f5780634d556e9e1461074f5780634d62f1bc1461076f5780634f56bd351461078f5761044b565b80633a6e2096146106af5780633c897393146106cf5780633fe5c810146106ef5780634546fd9f1461070f5761044b565b80632afa0de3116103915780632fb4b2e5116103605780632fb4b2e51461060f578063307997381461062f57806339cc6f1c1461064f5780633a060b3a1461066f5780633a2948211461068f5761044b565b80632afa0de3146105815780632e83126b146105a15780632f80facc146105c15780632faf44f6146105e15761044b565b806314eeccaf116103cd57806314eeccaf146104f45780631b7a9bc11461051457806327ad5a09146105415780632a72c5e4146105615761044b565b806305c1847b1461045c5780630a9671bf146104925780630eeeb9f2146104b2578063149b2836146104d45761044b565b3661044b576000546001600160a01b03165b6001600160a01b03166108fc349081150290604051600060405180830381858888f19350505050158015610448573d6000803e3d6000fd5b50005b6000546001600160a01b0316610410565b34801561046857600080fd5b5061047c610477366004613cf7565b610d80565b6040516104899190614126565b60405180910390f35b34801561049e57600080fd5b5061047c6104ad366004614024565b610e1a565b3480156104be57600080fd5b506104d26104cd366004613ebb565b610f4d565b005b3480156104e057600080fd5b5061047c6104ef366004613cf7565b611052565b34801561050057600080fd5b506104d261050f366004613f43565b61106b565b34801561052057600080fd5b5061053461052f366004614024565b6112d3565b60405161048991906140d9565b34801561054d57600080fd5b506104d261055c366004613ebb565b611431565b34801561056d57600080fd5b5061047c61057c366004614024565b61147a565b34801561058d57600080fd5b5061047c61059c366004614024565b611523565b3480156105ad57600080fd5b5061047c6105bc366004613cf7565b6115cc565b3480156105cd57600080fd5b506104d26105dc366004613ebb565b6115e5565b3480156105ed57600080fd5b506106016105fc366004613cf7565b61162e565b604051610489929190614139565b34801561061b57600080fd5b5061047c61062a366004613cf7565b61175a565b34801561063b57600080fd5b5061047c61064a366004614024565b611773565b34801561065b57600080fd5b5061047c61066a366004614002565b61181c565b34801561067b57600080fd5b5061047c61068a366004614024565b611848565b34801561069b57600080fd5b5061047c6106aa366004613cf7565b6118f1565b3480156106bb57600080fd5b5061047c6106ca366004614002565b61190a565b3480156106db57600080fd5b506105346106ea366004614024565b611926565b3480156106fb57600080fd5b506104d261070a366004613ebb565b611a74565b34801561071b57600080fd5b5061047c61072a366004614024565b611abd565b34801561073b57600080fd5b506104d261074a366004613e0c565b611b66565b34801561075b57600080fd5b5061047c61076a366004614024565b61282f565b34801561077b57600080fd5b5061047c61078a366004614024565b6128d8565b34801561079b57600080fd5b5061047c6107aa366004614024565b612981565b3480156107bb57600080fd5b5061047c6107ca366004613cf7565b612a2a565b3480156107db57600080fd5b506104d26107ea366004613d10565b612a43565b3480156107fb57600080fd5b506104d261080a366004613ebb565b612abe565b34801561081b57600080fd5b5061047c61082a366004614024565b612b07565b34801561083b57600080fd5b5061047c61084a366004613cf7565b612bb0565b34801561085b57600080fd5b5061047c61086a366004614024565b612bc9565b34801561087b57600080fd5b506104d2612c72565b34801561089057600080fd5b506104d261089f366004613d10565b612ca8565b3480156108b057600080fd5b506108c46108bf366004614024565b612d13565b60405161048991906141c1565b3480156108dd57600080fd5b5061047c6108ec366004613cf7565b612ef6565b3480156108fd57600080fd5b5061047c61090c366004614024565b612f0f565b34801561091d57600080fd5b506104d261092c366004613ebb565b612fb8565b34801561093d57600080fd5b506104d261094c366004613ebb565b613001565b34801561095d57600080fd5b506104d261096c366004613d10565b61304a565b34801561097d57600080fd5b506104d261098c366004613ebb565b6130b5565b34801561099d57600080fd5b5061047c6109ac366004614002565b6130fe565b3480156109bd57600080fd5b506104d26109cc366004613ebb565b61311a565b3480156109dd57600080fd5b5061047c6109ec366004614002565b613163565b3480156109fd57600080fd5b506000546040516001600160a01b039091168152602001610489565b348015610a2557600080fd5b5061047c610a34366004613cf7565b61317f565b348015610a4557600080fd5b5061047c610a54366004613cf7565b613198565b348015610a6557600080fd5b506104d2610a74366004613d10565b6131b1565b348015610a8557600080fd5b5061047c610a94366004614024565b61321c565b348015610aa557600080fd5b5061047c610ab4366004613cf7565b6132c5565b348015610ac557600080fd5b506104d2610ad4366004613ebb565b6132de565b348015610ae557600080fd5b506104d2613327565b348015610afa57600080fd5b5061047c610b09366004613cf7565b61338f565b348015610b1a57600080fd5b5061047c610b29366004614024565b6133a8565b348015610b3a57600080fd5b506104d2610b49366004613ebb565b613451565b348015610b5a57600080fd5b50610534610b69366004614024565b61349a565b348015610b7a57600080fd5b5061047c610b89366004613cf7565b6135e8565b348015610b9a57600080fd5b506104d2610ba9366004613ebb565b613601565b348015610bba57600080fd5b5061047c610bc9366004613cf7565b61364a565b348015610bda57600080fd5b5061047c610be9366004614024565b613663565b348015610bfa57600080fd5b5061047c610c09366004613cf7565b61370c565b348015610c1a57600080fd5b50610534610c29366004614024565b613725565b348015610c3a57600080fd5b506104d2610c49366004613ebb565b613873565b348015610c5a57600080fd5b506104d2610c69366004613cc7565b6138bc565b348015610c7a57600080fd5b506104d2610c89366004613ebb565b613957565b348015610c9a57600080fd5b506104d2610ca9366004613ebb565b6139a0565b348015610cba57600080fd5b50610d10610cc9366004614024565b825160208185018101805160168252928201958201959095209190945282518084018501805192815290850193850193909320925291526000908152604090205460ff1681565b6040519015158152602001610489565b348015610d2c57600080fd5b5061047c610d3b366004614024565b6139e9565b348015610d4c57600080fd5b506104d2610d5b366004613ebb565b613a92565b348015610d6c57600080fd5b5061047c610d7b366004613cf7565b613adb565b60106020526000908152604090208054610d9990614253565b80601f0160208091040260200160405190810160405280929190818152602001828054610dc590614253565b8015610e125780601f10610de757610100808354040283529160200191610e12565b820191906000526020600020905b815481529060010190602001808311610df557829003601f168201915b505050505081565b6060600084604051602001610e2f91906140bd565b604051602081830303815290604052805190602001209050600084604051602001610e5a91906140bd565b60408051601f198184030181528282528051602091820120908301859052908201819052606082018690529150600090608001604051602081830303815290604052805190602001209050601360008281526020019081526020016000208054610ec390614253565b80601f0160208091040260200160405190810160405280929190818152602001828054610eef90614253565b8015610f3c5780601f10610f1157610100808354040283529160200191610f3c565b820191906000526020600020905b815481529060010190602001808311610f1f57829003601f168201915b505050505093505050509392505050565b6000546001600160a01b03163314610f805760405162461bcd60e51b8152600401610f779061418c565b60405180910390fd5b60008581526014602090815260409091208551610f9f92870190613b44565b506001601684604051610fb291906140bd565b908152602001604051809103902083604051610fce91906140bd565b9081526040805160209281900383018120600086815293529120805460ff19169215159290921790915581906110059084906140bd565b60405180910390208460405161101b91906140bd565b604051908190038120907f157c591ace5f3b9abb528bf24c268ff3609a609240a77b5b48174a31d315f97690600090a45050505050565b600f6020526000908152604090208054610d9990614253565b6000546001600160a01b031633146110955760405162461bcd60e51b8152600401610f779061418c565b60008681526015602052604080822081518083019092528054829082906110bb90614253565b80601f01602080910402602001604051908101604052809291908181526020018280546110e790614253565b80156111345780601f1061110957610100808354040283529160200191611134565b820191906000526020600020905b81548152906001019060200180831161111757829003601f168201915b5050505050815260200160018201805461114d90614253565b80601f016020809104026020016040519081016040528092919081815260200182805461117990614253565b80156111c65780601f1061119b576101008083540402835291602001916111c6565b820191906000526020600020905b8154815290600101906020018083116111a957829003601f168201915b50505091909252505050868152602080820187905260008981526015825260409020825180519394508493919261120292849290910190613b44565b50602082810151805161121b9260018501920190613b44565b50905050600160168560405161123191906140bd565b90815260200160405180910390208460405161124d91906140bd565b9081526040805160209281900383018120600087815293529120805460ff19169215159290921790915582906112849085906140bd565b60405180910390208560405161129a91906140bd565b604051908190038120907f157c591ace5f3b9abb528bf24c268ff3609a609240a77b5b48174a31d315f97690600090a450505050505050565b6112db613bc8565b6000846040516020016112ee91906140bd565b60405160208183030381529060405280519060200120905060008460405160200161131991906140bd565b60408051601f19818403018152828252805160209182012090830185905290820181905260608201869052915060009060800160408051601f1981840301815282825280516020918201206000818152600e9092528282208484019093529350600290835b8282101561142157838201805461139490614253565b80601f01602080910402602001604051908101604052809291908181526020018280546113c090614253565b801561140d5780601f106113e25761010080835404028352916020019161140d565b820191906000526020600020905b8154815290600101906020018083116113f057829003601f168201915b50505050508152602001906001019061137e565b5050505093505050509392505050565b6000546001600160a01b0316331461145b5760405162461bcd60e51b8152600401610f779061418c565b60008581526005602090815260409091208551610f9f92870190613b44565b606060008460405160200161148f91906140bd565b6040516020818303038152906040528051906020012090506000846040516020016114ba91906140bd565b60408051601f198184030181528282528051602091820120908301859052908201819052606082018690529150600090608001604051602081830303815290604052805190602001209050600760008281526020019081526020016000208054610ec390614253565b606060008460405160200161153891906140bd565b60405160208183030381529060405280519060200120905060008460405160200161156391906140bd565b60408051601f198184030181528282528051602091820120908301859052908201819052606082018690529150600090608001604051602081830303815290604052805190602001209050600560008281526020019081526020016000208054610ec390614253565b60016020526000908152604090208054610d9990614253565b6000546001600160a01b0316331461160f5760405162461bcd60e51b8152600401610f779061418c565b60008581526009602090815260409091208551610f9f92870190613b44565b60156020526000908152604090208054819061164990614253565b80601f016020809104026020016040519081016040528092919081815260200182805461167590614253565b80156116c25780601f10611697576101008083540402835291602001916116c2565b820191906000526020600020905b8154815290600101906020018083116116a557829003601f168201915b5050505050908060010180546116d790614253565b80601f016020809104026020016040519081016040528092919081815260200182805461170390614253565b80156117505780601f1061172557610100808354040283529160200191611750565b820191906000526020600020905b81548152906001019060200180831161173357829003601f168201915b5050505050905082565b60076020526000908152604090208054610d9990614253565b606060008460405160200161178891906140bd565b6040516020818303038152906040528051906020012090506000846040516020016117b391906140bd565b60408051601f198184030181528282528051602091820120908301859052908201819052606082018690529150600090608001604051602081830303815290604052805190602001209050600860008281526020019081526020016000208054610ec390614253565b600c602052816000526040600020816002811061183857600080fd5b018054909250610d999150614253565b606060008460405160200161185d91906140bd565b60405160208183030381529060405280519060200120905060008460405160200161188891906140bd565b60408051601f198184030181528282528051602091820120908301859052908201819052606082018690529150600090608001604051602081830303815290604052805190602001209050600160008281526020019081526020016000208054610ec390614253565b60086020526000908152604090208054610d9990614253565b600e602052816000526040600020816002811061183857600080fd5b61192e613bc8565b60008460405160200161194191906140bd565b60405160208183030381529060405280519060200120905060008460405160200161196c91906140bd565b60408051601f19818403018152828252805160209182012090830185905290820181905260608201869052915060009060800160408051601f1981840301815282825280516020918201206000818152600c9092528282208484019093529350600290835b828210156114215783820180546119e790614253565b80601f0160208091040260200160405190810160405280929190818152602001828054611a1390614253565b8015611a605780601f10611a3557610100808354040283529160200191611a60565b820191906000526020600020905b815481529060010190602001808311611a4357829003601f168201915b5050505050815260200190600101906119d1565b6000546001600160a01b03163314611a9e5760405162461bcd60e51b8152600401610f779061418c565b60008581526007602090815260409091208551610f9f92870190613b44565b6060600084604051602001611ad291906140bd565b604051602081830303815290604052805190602001209050600084604051602001611afd91906140bd565b60408051601f198184030181528282528051602091820120908301859052908201819052606082018690529150600090608001604051602081830303815290604052805190602001209050600360008281526020019081526020016000208054610ec390614253565b6000546001600160a01b03163314611b905760405162461bcd60e51b8152600401610f779061418c565b6040805160208082018a90528183018990526060808301859052835180840390910181526080830190935282519201919091206737b732a830b3b2b960c11b60a08301529060a8016040516020818303038152906040528051906020012086604051602001611bff91906140bd565b604051602081830303815290604052805190602001201415611d005760008181526001602052604081208054611c3490614253565b80601f0160208091040260200160405190810160405280929190818152602001828054611c6090614253565b8015611cad5780601f10611c8257610100808354040283529160200191611cad565b820191906000526020600020905b815481529060010190602001808311611c9057829003601f168201915b50505050509050805160001415611cd65760405162461bcd60e51b8152600401610f7790614167565b611ce3868287878761311a565b6000828152600160205260408120611cfa91613bef565b50612825565b6040516473746f727960d81b60208201526025016040516020818303038152906040528051906020012086604051602001611d3b91906140bd565b604051602081830303815290604052805190602001201415611e365760008181526002602052604081208054611d7090614253565b80601f0160208091040260200160405190810160405280929190818152602001828054611d9c90614253565b8015611de95780601f10611dbe57610100808354040283529160200191611de9565b820191906000526020600020905b815481529060010190602001808311611dcc57829003601f168201915b50505050509050805160001415611e125760405162461bcd60e51b8152600401610f7790614167565b611e1f8682878787613a92565b6000828152600260205260408120611cfa91613bef565b6040516b1cd85b5c1b1954d8dc9a5c1d60a21b6020820152602c016040516020818303038152906040528051906020012086604051602001611e7891906140bd565b604051602081830303815290604052805190602001201415611f735760008181526003602052604081208054611ead90614253565b80601f0160208091040260200160405190810160405280929190818152602001828054611ed990614253565b8015611f265780601f10611efb57610100808354040283529160200191611f26565b820191906000526020600020905b815481529060010190602001808311611f0957829003601f168201915b50505050509050805160001415611f4f5760405162461bcd60e51b8152600401610f7790614167565b611f5c8682878787613451565b6000828152600360205260408120611cfa91613bef565b60405169199d5b1b14d8dc9a5c1d60b21b6020820152602a016040516020818303038152906040528051906020012086604051602001611fb391906140bd565b6040516020818303038152906040528051906020012014156120ae5760008181526004602052604081208054611fe890614253565b80601f016020809104026020016040519081016040528092919081815260200182805461201490614253565b80156120615780601f1061203657610100808354040283529160200191612061565b820191906000526020600020905b81548152906001019060200180831161204457829003601f168201915b5050505050905080516000141561208a5760405162461bcd60e51b8152600401610f7790614167565b61209786828787876139a0565b6000828152600460205260408120611cfa91613bef565b60405166666f6f7461676560c81b602082015260270160405160208183030381529060405280519060200120866040516020016120eb91906140bd565b6040516020818303038152906040528051906020012014156121e6576000818152600560205260408120805461212090614253565b80601f016020809104026020016040519081016040528092919081815260200182805461214c90614253565b80156121995780601f1061216e57610100808354040283529160200191612199565b820191906000526020600020905b81548152906001019060200180831161217c57829003601f168201915b505050505090508051600014156121c25760405162461bcd60e51b8152600401610f7790614167565b6121cf8682878787611431565b6000828152600560205260408120611cfa91613bef565b6040516870697463684465636b60b81b6020820152602901604051602081830303815290604052805190602001208660405160200161222591906140bd565b604051602081830303815290604052805190602001201415612320576000818152600660205260408120805461225a90614253565b80601f016020809104026020016040519081016040528092919081815260200182805461228690614253565b80156122d35780601f106122a8576101008083540402835291602001916122d3565b820191906000526020600020905b8154815290600101906020018083116122b657829003601f168201915b505050505090508051600014156122fc5760405162461bcd60e51b8152600401610f7790614167565b6123098682878787613957565b6000828152600660205260408120611cfa91613bef565b6040516e39b0b6b83632a730b93930ba34b7b760891b6020820152602f01604051602081830303815290604052805190602001208660405160200161236591906140bd565b604051602081830303815290604052805190602001201415612460576000818152600760205260408120805461239a90614253565b80601f01602080910402602001604051908101604052809291908181526020018280546123c690614253565b80156124135780601f106123e857610100808354040283529160200191612413565b820191906000526020600020905b8154815290600101906020018083116123f657829003601f168201915b5050505050905080516000141561243c5760405162461bcd60e51b8152600401610f7790614167565b6124498682878787611a74565b6000828152600760205260408120611cfa91613bef565b6040516c333ab6362730b93930ba34b7b760991b6020820152602d0160405160208183030381529060405280519060200120866040516020016124a391906140bd565b60405160208183030381529060405280519060200120141561259e57600081815260086020526040812080546124d890614253565b80601f016020809104026020016040519081016040528092919081815260200182805461250490614253565b80156125515780601f1061252657610100808354040283529160200191612551565b820191906000526020600020905b81548152906001019060200180831161253457829003601f168201915b5050505050905080516000141561257a5760405162461bcd60e51b8152600401610f7790614167565b6125878682878787613001565b6000828152600860205260408120611cfa91613bef565b6040516d736372697074416e616c7973697360901b6020820152602e0160405160208183030381529060405280519060200120866040516020016125e291906140bd565b6040516020818303038152906040528051906020012014156126dd576000818152600960205260408120805461261790614253565b80601f016020809104026020016040519081016040528092919081815260200182805461264390614253565b80156126905780601f1061266557610100808354040283529160200191612690565b820191906000526020600020905b81548152906001019060200180831161267357829003601f168201915b505050505090508051600014156126b95760405162461bcd60e51b8152600401610f7790614167565b6126c686828787876115e5565b6000828152600960205260408120611cfa91613bef565b6040517431b430b930b1ba32b924b73a3937b23ab1ba34b7b760591b6020820152603501604051602081830303815290604052805190602001208660405160200161272891906140bd565b604051602081830303815290604052805190602001201415612825576000818152600a60205260408120805461275d90614253565b80601f016020809104026020016040519081016040528092919081815260200182805461278990614253565b80156127d65780601f106127ab576101008083540402835291602001916127d6565b820191906000526020600020905b8154815290600101906020018083116127b957829003601f168201915b505050505090508051600014156127ff5760405162461bcd60e51b8152600401610f7790614167565b61280c86828787876130b5565b6000828152600a6020526040812061282391613bef565b505b5050505050505050565b606060008460405160200161284491906140bd565b60405160208183030381529060405280519060200120905060008460405160200161286f91906140bd565b60408051601f198184030181528282528051602091820120908301859052908201819052606082018690529150600090608001604051602081830303815290604052805190602001209050600960008281526020019081526020016000208054610ec390614253565b60606000846040516020016128ed91906140bd565b60405160208183030381529060405280519060200120905060008460405160200161291891906140bd565b60408051601f198184030181528282528051602091820120908301859052908201819052606082018690529150600090608001604051602081830303815290604052805190602001209050601060008281526020019081526020016000208054610ec390614253565b606060008460405160200161299691906140bd565b6040516020818303038152906040528051906020012090506000846040516020016129c191906140bd565b60408051601f198184030181528282528051602091820120908301859052908201819052606082018690529150600090608001604051602081830303815290604052805190602001209050601460008281526020019081526020016000208054610ec390614253565b60066020526000908152604090208054610d9990614253565b6000546001600160a01b03163314612a6d5760405162461bcd60e51b8152600401610f779061418c565b83516000868152600d60205260408120019080519060200190612a91929190613b44565b506020808501516000878152600d909252604090912060015b019080519060200190610f9f929190613b44565b6000546001600160a01b03163314612ae85760405162461bcd60e51b8152600401610f779061418c565b6000858152600f602090815260409091208551610f9f92870190613b44565b6060600084604051602001612b1c91906140bd565b604051602081830303815290604052805190602001209050600084604051602001612b4791906140bd565b60408051601f198184030181528282528051602091820120908301859052908201819052606082018690529150600090608001604051602081830303815290604052805190602001209050601260008281526020019081526020016000208054610ec390614253565b60026020526000908152604090208054610d9990614253565b6060600084604051602001612bde91906140bd565b604051602081830303815290604052805190602001209050600084604051602001612c0991906140bd565b60408051601f198184030181528282528051602091820120908301859052908201819052606082018690529150600090608001604051602081830303815290604052805190602001209050600660008281526020019081526020016000208054610ec390614253565b6000546001600160a01b03163314612c9c5760405162461bcd60e51b8152600401610f779061418c565b612ca66000613af4565b565b6000546001600160a01b03163314612cd25760405162461bcd60e51b8152600401610f779061418c565b83516000868152600e60205260408120019080519060200190612cf6929190613b44565b506020808501516000878152600e90925260409091206001612aaa565b6040805180820190915260608082526020820152600084604051602001612d3a91906140bd565b604051602081830303815290604052805190602001209050600084604051602001612d6591906140bd565b60408051601f19818403018152828252805160209182012090830185905290820181905260608201869052915060009060800160408051601f1981840301815282825280516020918201206000818152601590925290829020838301909252815490935082908290612dd690614253565b80601f0160208091040260200160405190810160405280929190818152602001828054612e0290614253565b8015612e4f5780601f10612e2457610100808354040283529160200191612e4f565b820191906000526020600020905b815481529060010190602001808311612e3257829003601f168201915b50505050508152602001600182018054612e6890614253565b80601f0160208091040260200160405190810160405280929190818152602001828054612e9490614253565b8015612ee15780601f10612eb657610100808354040283529160200191612ee1565b820191906000526020600020905b815481529060010190602001808311612ec457829003601f168201915b50505050508152505093505050509392505050565b60116020526000908152604090208054610d9990614253565b6060600084604051602001612f2491906140bd565b604051602081830303815290604052805190602001209050600084604051602001612f4f91906140bd565b60408051601f198184030181528282528051602091820120908301859052908201819052606082018690529150600090608001604051602081830303815290604052805190602001209050600260008281526020019081526020016000208054610ec390614253565b6000546001600160a01b03163314612fe25760405162461bcd60e51b8152600401610f779061418c565b60008581526013602090815260409091208551610f9f92870190613b44565b6000546001600160a01b0316331461302b5760405162461bcd60e51b8152600401610f779061418c565b60008581526008602090815260409091208551610f9f92870190613b44565b6000546001600160a01b031633146130745760405162461bcd60e51b8152600401610f779061418c565b83516000868152600c60205260408120019080519060200190613098929190613b44565b506020808501516000878152600c90925260409091206001612aaa565b6000546001600160a01b031633146130df5760405162461bcd60e51b8152600401610f779061418c565b6000858152600a602090815260409091208551610f9f92870190613b44565b600d602052816000526040600020816002811061183857600080fd5b6000546001600160a01b031633146131445760405162461bcd60e51b8152600401610f779061418c565b60008581526001602090815260409091208551610f9f92870190613b44565b600b602052816000526040600020816002811061183857600080fd5b60046020526000908152604090208054610d9990614253565b60146020526000908152604090208054610d9990614253565b6000546001600160a01b031633146131db5760405162461bcd60e51b8152600401610f779061418c565b83516000868152600b602052604081200190805190602001906131ff929190613b44565b506020808501516000878152600b90925260409091206001612aaa565b606060008460405160200161323191906140bd565b60405160208183030381529060405280519060200120905060008460405160200161325c91906140bd565b60408051601f198184030181528282528051602091820120908301859052908201819052606082018690529150600090608001604051602081830303815290604052805190602001209050600a60008281526020019081526020016000208054610ec390614253565b60096020526000908152604090208054610d9990614253565b6000546001600160a01b031633146133085760405162461bcd60e51b8152600401610f779061418c565b60008581526012602090815260409091208551610f9f92870190613b44565b6000546001600160a01b031633146133815760405162461bcd60e51b815260206004820152601b60248201527f6d73672e73656e646572206973206e6f7420746865206f776e657200000000006044820152606401610f77565b6000546001600160a01b0316ff5b600a6020526000908152604090208054610d9990614253565b60606000846040516020016133bd91906140bd565b6040516020818303038152906040528051906020012090506000846040516020016133e891906140bd565b60408051601f198184030181528282528051602091820120908301859052908201819052606082018690529150600090608001604051602081830303815290604052805190602001209050600f60008281526020019081526020016000208054610ec390614253565b6000546001600160a01b0316331461347b5760405162461bcd60e51b8152600401610f779061418c565b60008581526003602090815260409091208551610f9f92870190613b44565b6134a2613bc8565b6000846040516020016134b591906140bd565b6040516020818303038152906040528051906020012090506000846040516020016134e091906140bd565b60408051601f19818403018152828252805160209182012090830185905290820181905260608201869052915060009060800160408051601f1981840301815282825280516020918201206000818152600d9092528282208484019093529350600290835b8282101561142157838201805461355b90614253565b80601f016020809104026020016040519081016040528092919081815260200182805461358790614253565b80156135d45780601f106135a9576101008083540402835291602001916135d4565b820191906000526020600020905b8154815290600101906020018083116135b757829003601f168201915b505050505081526020019060010190613545565b60136020526000908152604090208054610d9990614253565b6000546001600160a01b0316331461362b5760405162461bcd60e51b8152600401610f779061418c565b60008581526010602090815260409091208551610f9f92870190613b44565b60126020526000908152604090208054610d9990614253565b606060008460405160200161367891906140bd565b6040516020818303038152906040528051906020012090506000846040516020016136a391906140bd565b60408051601f198184030181528282528051602091820120908301859052908201819052606082018690529150600090608001604051602081830303815290604052805190602001209050600460008281526020019081526020016000208054610ec390614253565b60036020526000908152604090208054610d9990614253565b61372d613bc8565b60008460405160200161374091906140bd565b60405160208183030381529060405280519060200120905060008460405160200161376b91906140bd565b60408051601f19818403018152828252805160209182012090830185905290820181905260608201869052915060009060800160408051601f1981840301815282825280516020918201206000818152600b9092528282208484019093529350600290835b828210156114215783820180546137e690614253565b80601f016020809104026020016040519081016040528092919081815260200182805461381290614253565b801561385f5780601f106138345761010080835404028352916020019161385f565b820191906000526020600020905b81548152906001019060200180831161384257829003601f168201915b5050505050815260200190600101906137d0565b6000546001600160a01b0316331461389d5760405162461bcd60e51b8152600401610f779061418c565b60008581526011602090815260409091208551610f9f92870190613b44565b6000546001600160a01b031633146138e65760405162461bcd60e51b8152600401610f779061418c565b6001600160a01b03811661394b5760405162461bcd60e51b815260206004820152602660248201527f4f776e61626c653a206e6577206f776e657220697320746865207a65726f206160448201526564647265737360d01b6064820152608401610f77565b61395481613af4565b50565b6000546001600160a01b031633146139815760405162461bcd60e51b8152600401610f779061418c565b60008581526006602090815260409091208551610f9f92870190613b44565b6000546001600160a01b031633146139ca5760405162461bcd60e51b8152600401610f779061418c565b60008581526004602090815260409091208551610f9f92870190613b44565b60606000846040516020016139fe91906140bd565b604051602081830303815290604052805190602001209050600084604051602001613a2991906140bd565b60408051601f198184030181528282528051602091820120908301859052908201819052606082018690529150600090608001604051602081830303815290604052805190602001209050601160008281526020019081526020016000208054610ec390614253565b6000546001600160a01b03163314613abc5760405162461bcd60e51b8152600401610f779061418c565b60008581526002602090815260409091208551610f9f92870190613b44565b60056020526000908152604090208054610d9990614253565b600080546001600160a01b038381166001600160a01b0319831681178455604051919092169283917f8be0079c531659141344cd1fd0a4f28419497f9722a3daafe3b4186f6b6457e09190a35050565b828054613b5090614253565b90600052602060002090601f016020900481019282613b725760008555613bb8565b82601f10613b8b57805160ff1916838001178555613bb8565b82800160010185558215613bb8579182015b82811115613bb8578251825591602001919060010190613b9d565b50613bc4929150613c25565b5090565b60405180604001604052806002905b6060815260200190600190039081613bd75790505090565b508054613bfb90614253565b6000825580601f10613c0b575050565b601f01602090049060005260206000209081019061395491905b5b80821115613bc45760008155600101613c26565b600082601f830112613c4b57600080fd5b813567ffffffffffffffff80821115613c6657613c6661428e565b604051601f8301601f19908116603f01168101908282118183101715613c8e57613c8e61428e565b81604052838152866020858801011115613ca757600080fd5b836020870160208301376000602085830101528094505050505092915050565b600060208284031215613cd957600080fd5b81356001600160a01b0381168114613cf057600080fd5b9392505050565b600060208284031215613d0957600080fd5b5035919050565b600080600080600060a08688031215613d2857600080fd5b8535945060208087013567ffffffffffffffff80821115613d4857600080fd5b818901915089601f830112613d5c57600080fd5b613d646141fa565b80838c604086011115613d7657600080fd5b60005b6002811015613db057813585811115613d9157600080fd5b613d9d8f828901613c3a565b8552509286019290860190600101613d79565b5090985050506040890135925080831115613dca57600080fd5b613dd68a848b01613c3a565b95506060890135925080831115613dec57600080fd5b5050613dfa88828901613c3a565b95989497509295608001359392505050565b600080600080600080600060e0888a031215613e2757600080fd5b8735965060208801359550604088013567ffffffffffffffff80821115613e4d57600080fd5b613e598b838c01613c3a565b965060608a0135955060808a0135915080821115613e7657600080fd5b613e828b838c01613c3a565b945060a08a0135915080821115613e9857600080fd5b50613ea58a828b01613c3a565b92505060c0880135905092959891949750929550565b600080600080600060a08688031215613ed357600080fd5b85359450602086013567ffffffffffffffff80821115613ef257600080fd5b613efe89838a01613c3a565b95506040880135915080821115613f1457600080fd5b613f2089838a01613c3a565b94506060880135915080821115613f3657600080fd5b50613dfa88828901613c3a565b60008060008060008060c08789031215613f5c57600080fd5b86359550602087013567ffffffffffffffff80821115613f7b57600080fd5b613f878a838b01613c3a565b96506040890135915080821115613f9d57600080fd5b613fa98a838b01613c3a565b95506060890135915080821115613fbf57600080fd5b613fcb8a838b01613c3a565b94506080890135915080821115613fe157600080fd5b50613fee89828a01613c3a565b92505060a087013590509295509295509295565b6000806040838503121561401557600080fd5b50508035926020909101359150565b60008060006060848603121561403957600080fd5b833567ffffffffffffffff8082111561405157600080fd5b61405d87838801613c3a565b9450602086013591508082111561407357600080fd5b5061408086828701613c3a565b925050604084013590509250925092565b600081518084526140a9816020860160208601614223565b601f01601f19169290920160200192915050565b600082516140cf818460208701614223565b9190910192915050565b60208082526000906060830183820185845b600281101561411a57601f19878503018352614108848351614091565b935091840191908401906001016140eb565b50919695505050505050565b602081526000613cf06020830184614091565b60408152600061414c6040830185614091565b828103602084015261415e8185614091565b95945050505050565b6020808252600b908201526a15dc9bdb99c8125b9c1d5d60aa1b604082015260600190565b6020808252818101527f4f776e61626c653a2063616c6c6572206973206e6f7420746865206f776e6572604082015260600190565b6020815260008251604060208401526141dd6060840182614091565b90506020840151601f1984830301604085015261415e8282614091565b6040805190810167ffffffffffffffff8111828210171561421d5761421d61428e565b60405290565b60005b8381101561423e578181015183820152602001614226565b8381111561424d576000848401525b50505050565b600181811c9082168061426757607f821691505b6020821081141561428857634e487b7160e01b600052602260045260246000fd5b50919050565b634e487b7160e01b600052604160045260246000fdfea26469706673582212204e0adbebb4b122a35c5e23153f889fbb64bb9fb26a66620e0fb2dc78c30a571664736f6c63430008070033",
  "immutableReferences": {},
  "source": "// SPDX-License-Identifier: MIT \r\n\r\npragma solidity 0.8.7;\r\nimport \"./Ownable.sol\";\r\ncontract myNextFilm is Ownable{\r\n    struct subscription{\r\n        string subscriptionStartTime;\r\n        string subscriptionEndTime;\r\n    }\r\n    mapping(bytes32 => bytes) public onePager;\r\n    mapping(bytes32 => bytes) public story;\r\n    mapping(bytes32 => bytes) public sampleScript;\r\n    mapping(bytes32 => bytes) public fullScript;\r\n    mapping(bytes32 => bytes) public footage; \r\n    mapping(bytes32 => bytes) public pitchDeck;\r\n    mapping(bytes32 => bytes) public sampleNarration;\r\n    mapping(bytes32 => bytes) public fullNarration;\r\n    mapping(bytes32 => bytes) public scriptAnalysis;\r\n    mapping(bytes32 => bytes) public characterIntroduction;\r\n    mapping(bytes32 => bytes[2]) public pptConvert;\r\n    mapping(bytes32 => bytes[2]) public storyConvert;\r\n    mapping(bytes32 => bytes[2]) public bookConvert;\r\n    mapping(bytes32 => bytes[2]) public scriptConvert;\r\n    mapping(bytes32 => bytes) public pitchDeckConvert;\r\n    mapping(bytes32 => bytes) public viewerLoungeVideo;\r\n    mapping(bytes32 => bytes) public viewerLoungeLink;\r\n    mapping(bytes32 => bytes) public scriptPad;\r\n    mapping(bytes32 => bytes) public previewChamber;\r\n    mapping(bytes32 => bytes) public projectCenter;\r\n    mapping(bytes32 => subscription) public subscribe;    \r\n\r\n    mapping(string =>mapping(string => mapping(uint => bool))) public uploadFileStatus;  \r\n\r\n    event uploadDetails(string indexed uploaderName, string indexed fileName, uint indexed timeOfUpload);          \r\n    function createOnePager(bytes32 _onePagerCombine, bytes memory _uri,string memory _userName, string memory _fileName, uint _timeOfUpload) public onlyOwner {\r\n        onePager[_onePagerCombine] = _uri;\r\n        uploadFileStatus[_userName][_fileName][_timeOfUpload] = true;\r\n        emit uploadDetails(_userName, _fileName, _timeOfUpload);\r\n    }\r\n   \r\n    function createStory(bytes32 _storyCombine, bytes memory _uri,string memory _userName, string memory _fileName, uint _timeOfUpload) public onlyOwner {\r\n        story[_storyCombine] = _uri;\r\n        uploadFileStatus[_userName][_fileName][_timeOfUpload] = true;\r\n        emit uploadDetails(_userName, _fileName, _timeOfUpload);\r\n    }\r\n\r\n    function createSampleScript(bytes32 _combineSampleScript, bytes memory _uri,string memory _userName, string memory _fileName, uint _timeOfUpload) public onlyOwner {\r\n        sampleScript[_combineSampleScript] = _uri;\r\n        uploadFileStatus[_userName][_fileName][_timeOfUpload] = true;\r\n        emit uploadDetails(_userName, _fileName, _timeOfUpload);\r\n    }\r\n\r\n    function createFullScript(bytes32 _combineFullScript, bytes memory _uri,string memory _userName, string memory _fileName, uint _timeOfUpload) public onlyOwner {\r\n        fullScript[_combineFullScript] = _uri;\r\n        uploadFileStatus[_userName][_fileName][_timeOfUpload] = true;\r\n        emit uploadDetails(_userName, _fileName, _timeOfUpload);\r\n    }\r\n\r\n    function createFootage(bytes32 _combineFootage, bytes memory _uri,string memory _userName, string memory _fileName, uint _timeOfUpload) public onlyOwner {\r\n        footage[_combineFootage] = _uri;\r\n        uploadFileStatus[_userName][_fileName][_timeOfUpload] = true;\r\n        emit uploadDetails(_userName, _fileName, _timeOfUpload);\r\n    }\r\n\r\n    function createPitchDeck(bytes32 _combinePitchDeck, bytes memory _uri,string memory _userName, string memory _fileName, uint _timeOfUpload) public onlyOwner {\r\n        pitchDeck[_combinePitchDeck] = _uri;\r\n        uploadFileStatus[_userName][_fileName][_timeOfUpload] = true;\r\n        emit uploadDetails(_userName, _fileName, _timeOfUpload);\r\n    }\r\n    \r\n    function createSampleNarration(bytes32 _combineSampleNarration, bytes memory _uri,string memory _userName, string memory _fileName, uint _timeOfUpload) public onlyOwner {\r\n        sampleNarration[_combineSampleNarration] = _uri;\r\n        uploadFileStatus[_userName][_fileName][_timeOfUpload] = true;\r\n        emit uploadDetails(_userName, _fileName, _timeOfUpload);\r\n    }    \r\n\r\n    function createFullNarration(bytes32 _combineFullNarration, bytes memory _uri,string memory _userName, string memory _fileName, uint _timeOfUpload) public onlyOwner {\r\n        fullNarration[_combineFullNarration] = _uri;\r\n        uploadFileStatus[_userName][_fileName][_timeOfUpload] = true;\r\n        emit uploadDetails(_userName, _fileName, _timeOfUpload);\r\n    }\r\n\r\n    function createScriptAnalysis(bytes32 _combineScriptAnalysis, bytes memory _uri,string memory _userName, string memory _fileName, uint _timeOfUpload) public onlyOwner {\r\n        scriptAnalysis[_combineScriptAnalysis] = _uri;\r\n        uploadFileStatus[_userName][_fileName][_timeOfUpload] = true;\r\n        emit uploadDetails(_userName, _fileName, _timeOfUpload);\r\n    }   \r\n\r\n    function createCharacterIntro(bytes32 _combineCharacterIntro, bytes memory _uri,string memory _userName, string memory _fileName, uint _timeOfUpload) public onlyOwner{\r\n        characterIntroduction[_combineCharacterIntro] = _uri;\r\n        uploadFileStatus[_userName][_fileName][_timeOfUpload] = true;\r\n        emit uploadDetails(_userName, _fileName, _timeOfUpload);\r\n    }   \r\n    function createPPTconversion(bytes32 _pptCombine, bytes[2] memory _uri,string memory _userName, string memory _fileName, uint _timeOfUpload) public onlyOwner {\r\n        pptConvert[_pptCombine][0] = _uri[0];\r\n        pptConvert[_pptCombine][1] = _uri[1];\r\n        uploadFileStatus[_userName][_fileName][_timeOfUpload] = true;\r\n        emit uploadDetails(_userName, _fileName, _timeOfUpload);\r\n    }      \r\n\r\n    function createStoryConversion(bytes32 _storyCombine, bytes[2] memory _uri,string memory _userName, string memory _fileName, uint _timeOfUpload) public onlyOwner {\r\n        storyConvert[_storyCombine][0] = _uri[0];\r\n        storyConvert[_storyCombine][1] = _uri[1];\r\n        uploadFileStatus[_userName][_fileName][_timeOfUpload] = true;\r\n        emit uploadDetails(_userName, _fileName, _timeOfUpload);\r\n    }      \r\n\r\n    function createBookConversion(bytes32 _bookCombine, bytes[2] memory _uri,string memory _userName, string memory _fileName, uint _timeOfUpload) public onlyOwner {\r\n        bookConvert[_bookCombine][0] = _uri[0];\r\n        bookConvert[_bookCombine][1] = _uri[1];        \r\n        uploadFileStatus[_userName][_fileName][_timeOfUpload] = true;\r\n        emit uploadDetails(_userName, _fileName, _timeOfUpload);\r\n    }\r\n\r\n    function createScriptConversion(bytes32 _scriptCombine, bytes[2] memory _uri,string memory _userName, string memory _fileName, uint _timeOfUpload) public onlyOwner{\r\n        scriptConvert[_scriptCombine][0] = _uri[0];\r\n        scriptConvert[_scriptCombine][1] = _uri[1];        \r\n        uploadFileStatus[_userName][_fileName][_timeOfUpload] = true;\r\n        emit uploadDetails(_userName, _fileName, _timeOfUpload);\r\n    }    \r\n\r\n    function createPitchDeckConversion(bytes32 _pitchDeckCombine, bytes memory _uri,string memory _userName, string memory _fileName, uint _timeOfUpload) public onlyOwner {\r\n        pitchDeckConvert[_pitchDeckCombine] = _uri;        \r\n        uploadFileStatus[_userName][_fileName][_timeOfUpload] = true;\r\n        emit uploadDetails(_userName, _fileName, _timeOfUpload);\r\n    }   \r\n\r\n    function createViewerLoungeForVideo(bytes32 _viewerLoungeVideoCombine, bytes memory _uri,string memory _userName, string memory _fileName, uint _timeOfUpload) public onlyOwner {\r\n        viewerLoungeVideo[_viewerLoungeVideoCombine] = _uri;        \r\n        uploadFileStatus[_userName][_fileName][_timeOfUpload] = true;\r\n        emit uploadDetails(_userName, _fileName, _timeOfUpload);\r\n    } \r\n        \r\n    function createviewerLoungeForLink(bytes32 _viewerLoungeLinkCombine, bytes memory _uri,string memory _userName, string memory _fileName, uint _timeOfUpload) public onlyOwner {\r\n        viewerLoungeLink[_viewerLoungeLinkCombine] = _uri;        \r\n        uploadFileStatus[_userName][_fileName][_timeOfUpload] = true;\r\n        emit uploadDetails(_userName, _fileName, _timeOfUpload);\r\n    }\r\n\r\n    function createScriptPad(bytes32 _scriptPadCombine, bytes memory _uri,string memory _userName, string memory _fileName, uint _timeOfUpload) public onlyOwner {\r\n        scriptPad[_scriptPadCombine] = _uri;        \r\n        uploadFileStatus[_userName][_fileName][_timeOfUpload] = true;\r\n        emit uploadDetails(_userName, _fileName, _timeOfUpload);\r\n    } \r\n\r\n    function createPreviewChamber(bytes32 _previewChamberCombine, bytes memory _uri,string memory _userName, string memory _fileName, uint _timeOfUpload) public onlyOwner {\r\n        previewChamber[_previewChamberCombine] = _uri;        \r\n        uploadFileStatus[_userName][_fileName][_timeOfUpload] = true;\r\n        emit uploadDetails(_userName, _fileName, _timeOfUpload);\r\n    } \r\n\r\n    function createProjectCenter(bytes32 _projectCenterCombine, bytes memory _uri,string memory _userName, string memory _fileName, uint _timeOfUpload) public onlyOwner {\r\n        projectCenter[_projectCenterCombine] = _uri;        \r\n        uploadFileStatus[_userName][_fileName][_timeOfUpload] = true;\r\n        emit uploadDetails(_userName, _fileName, _timeOfUpload);\r\n    } \r\n    \r\n    function createSubscription(bytes32 _subscriptionCombine, string memory startDate, string memory endDate,string memory _userName, string memory _fileName, uint _timeOfUpload) public onlyOwner {\r\n        subscription memory sub = subscribe[_subscriptionCombine];\r\n        sub.subscriptionStartTime = startDate;\r\n        sub.subscriptionEndTime = endDate;\r\n        subscribe[_subscriptionCombine] = sub;\r\n        uploadFileStatus[_userName][_fileName][_timeOfUpload] = true;\r\n        emit uploadDetails(_userName, _fileName, _timeOfUpload);\r\n    } \r\n      \r\n    function showOnePager(string memory _email,string memory _previewName, uint _timeStamp) public view returns (bytes memory){\r\n        bytes32 _encryptedEmail = keccak256(abi.encodePacked(_email));\r\n        bytes32 _encryptedPreview = keccak256(abi.encodePacked(_previewName));\r\n        bytes32 _combine = keccak256(abi.encodePacked(_encryptedEmail,_encryptedPreview,_timeStamp));\r\n        return onePager[_combine];\r\n    }\r\n\r\n    function showStory(string memory _email,string memory _previewName, uint _timeStamp) public view returns (bytes memory){\r\n        bytes32 _encryptedEmail = keccak256(abi.encodePacked(_email));\r\n        bytes32 _encryptedPreview = keccak256(abi.encodePacked(_previewName));\r\n        bytes32 _combine = keccak256(abi.encodePacked(_encryptedEmail,_encryptedPreview,_timeStamp));\r\n        return story[_combine];\r\n    }\r\n\r\n    function showSampleScript(string memory _email,string memory _previewName, uint _timeStamp) public view returns (bytes memory){\r\n        bytes32 _encryptedEmail = keccak256(abi.encodePacked(_email));\r\n        bytes32 _encryptedPreview = keccak256(abi.encodePacked(_previewName));\r\n        bytes32 _combine = keccak256(abi.encodePacked(_encryptedEmail,_encryptedPreview,_timeStamp));\r\n        return sampleScript[_combine];\r\n    }\r\n\r\n    function showFullScript(string memory _email,string memory _previewName, uint _timeStamp) public view returns (bytes memory){\r\n        bytes32 _encryptedEmail = keccak256(abi.encodePacked(_email));\r\n        bytes32 _encryptedPreview = keccak256(abi.encodePacked(_previewName));\r\n        bytes32 _combine = keccak256(abi.encodePacked(_encryptedEmail,_encryptedPreview,_timeStamp));\r\n        return fullScript[_combine];\r\n    }\r\n\r\n    function showFootage(string memory _email,string memory _previewName, uint _timeStamp) public view returns (bytes memory){\r\n        bytes32 _encryptedEmail = keccak256(abi.encodePacked(_email));\r\n        bytes32 _encryptedPreview = keccak256(abi.encodePacked(_previewName));\r\n        bytes32 _combine = keccak256(abi.encodePacked(_encryptedEmail,_encryptedPreview,_timeStamp));\r\n        return footage[_combine];\r\n    }\r\n\r\n    function showPitchDeck(string memory _email,string memory _previewName, uint _timeStamp) public view returns (bytes memory){\r\n        bytes32 _encryptedEmail = keccak256(abi.encodePacked(_email));\r\n        bytes32 _encryptedPreview = keccak256(abi.encodePacked(_previewName));\r\n        bytes32 _combine = keccak256(abi.encodePacked(_encryptedEmail,_encryptedPreview,_timeStamp));\r\n        return pitchDeck[_combine];\r\n    }\r\n\r\n    function showSampleNarration(string memory _email,string memory _previewName, uint _timeStamp) public view returns (bytes memory){\r\n        bytes32 _encryptedEmail = keccak256(abi.encodePacked(_email));\r\n        bytes32 _encryptedPreview = keccak256(abi.encodePacked(_previewName));\r\n        bytes32 _combine = keccak256(abi.encodePacked(_encryptedEmail,_encryptedPreview,_timeStamp));\r\n        return sampleNarration[_combine];\r\n    }\r\n\r\n    function showFullNarration(string memory _email,string memory _previewName, uint _timeStamp) public view returns (bytes memory){\r\n        bytes32 _encryptedEmail = keccak256(abi.encodePacked(_email));\r\n        bytes32 _encryptedPreview = keccak256(abi.encodePacked(_previewName));\r\n        bytes32 _combine = keccak256(abi.encodePacked(_encryptedEmail,_encryptedPreview,_timeStamp));\r\n        return fullNarration[_combine];\r\n    }\r\n\r\n    function showScriptAnalysis(string memory _email,string memory _previewName, uint _timeStamp) public view returns (bytes memory){\r\n        bytes32 _encryptedEmail = keccak256(abi.encodePacked(_email));\r\n        bytes32 _encryptedPreview = keccak256(abi.encodePacked(_previewName));\r\n        bytes32 _combine = keccak256(abi.encodePacked(_encryptedEmail,_encryptedPreview,_timeStamp));\r\n        return scriptAnalysis[_combine];\r\n    }\r\n\r\n    function showCharacterIntro(string memory _email,string memory _previewName, uint _timeStamp) public view returns (bytes memory){\r\n        bytes32 _encryptedEmail = keccak256(abi.encodePacked(_email));\r\n        bytes32 _encryptedPreview = keccak256(abi.encodePacked(_previewName));\r\n        bytes32 _combine = keccak256(abi.encodePacked(_encryptedEmail,_encryptedPreview,_timeStamp));\r\n        return characterIntroduction[_combine];\r\n    }\r\n    \r\n    function showPPTconvert(string memory _email,string memory _previewName, uint _timeStamp) public view returns (bytes[2] memory){\r\n        bytes32 _encryptedEmail = keccak256(abi.encodePacked(_email));\r\n        bytes32 _encryptedPreview = keccak256(abi.encodePacked(_previewName));\r\n        bytes32 _combine = keccak256(abi.encodePacked(_encryptedEmail,_encryptedPreview,_timeStamp));\r\n        return pptConvert[_combine];\r\n    }\r\n\r\n    function showStoryConvert(string memory _email,string memory _previewName, uint _timeStamp) public view returns (bytes[2] memory){\r\n        bytes32 _encryptedEmail = keccak256(abi.encodePacked(_email));\r\n        bytes32 _encryptedPreview = keccak256(abi.encodePacked(_previewName));\r\n        bytes32 _combine = keccak256(abi.encodePacked(_encryptedEmail,_encryptedPreview,_timeStamp));\r\n        return storyConvert[_combine];\r\n    }\r\n\r\n    function showBookConvert(string memory _email,string memory _previewName, uint _timeStamp) public view returns (bytes[2] memory){\r\n        bytes32 _encryptedEmail = keccak256(abi.encodePacked(_email));\r\n        bytes32 _encryptedPreview = keccak256(abi.encodePacked(_previewName));\r\n        bytes32 _combine = keccak256(abi.encodePacked(_encryptedEmail,_encryptedPreview,_timeStamp));\r\n        return bookConvert[_combine];\r\n    }\r\n\r\n    function showScriptConvert(string memory _email,string memory _previewName, uint _timeStamp) public view returns (bytes[2] memory){\r\n        bytes32 _encryptedEmail = keccak256(abi.encodePacked(_email));\r\n        bytes32 _encryptedPreview = keccak256(abi.encodePacked(_previewName));\r\n        bytes32 _combine = keccak256(abi.encodePacked(_encryptedEmail,_encryptedPreview,_timeStamp));\r\n        return scriptConvert[_combine];\r\n    }\r\n\r\n    function showPitchDeckConvert(string memory _email,string memory _previewName, uint _timeStamp) public view returns (bytes memory){\r\n        bytes32 _encryptedEmail = keccak256(abi.encodePacked(_email));\r\n        bytes32 _encryptedPreview = keccak256(abi.encodePacked(_previewName));\r\n        bytes32 _combine = keccak256(abi.encodePacked(_encryptedEmail,_encryptedPreview,_timeStamp));\r\n        return pitchDeckConvert[_combine];\r\n    } \r\n\r\n    function showViewerLoungeVideo(string memory _email,string memory _previewName, uint _timeStamp) public view returns (bytes memory){\r\n        bytes32 _encryptedEmail = keccak256(abi.encodePacked(_email));\r\n        bytes32 _encryptedPreview = keccak256(abi.encodePacked(_previewName));\r\n        bytes32 _combine = keccak256(abi.encodePacked(_encryptedEmail,_encryptedPreview,_timeStamp));\r\n        return viewerLoungeVideo[_combine];\r\n    }\r\n\r\n    function showViewerLoungeLink(string memory _email,string memory _previewName, uint _timeStamp) public view returns (bytes memory){\r\n        bytes32 _encryptedEmail = keccak256(abi.encodePacked(_email));\r\n        bytes32 _encryptedPreview = keccak256(abi.encodePacked(_previewName));\r\n        bytes32 _combine = keccak256(abi.encodePacked(_encryptedEmail,_encryptedPreview,_timeStamp));\r\n        return viewerLoungeLink[_combine];\r\n    }\r\n     \r\n     function showScriptPad(string memory _email,string memory _previewName, uint _timeStamp) public view returns (bytes memory){\r\n        bytes32 _encryptedEmail = keccak256(abi.encodePacked(_email));\r\n        bytes32 _encryptedPreview = keccak256(abi.encodePacked(_previewName));\r\n        bytes32 _combine = keccak256(abi.encodePacked(_encryptedEmail,_encryptedPreview,_timeStamp));\r\n        return scriptPad[_combine];\r\n    }\r\n\r\n    function showPreviewChamber(string memory _email,string memory _previewName, uint _timeStamp) public view returns (bytes memory){\r\n        bytes32 _encryptedEmail = keccak256(abi.encodePacked(_email));\r\n        bytes32 _encryptedPreview = keccak256(abi.encodePacked(_previewName));\r\n        bytes32 _combine = keccak256(abi.encodePacked(_encryptedEmail,_encryptedPreview,_timeStamp));\r\n        return previewChamber[_combine];\r\n    }\r\n    \r\n    function showprojectCenter(string memory _email,string memory _previewName, uint _timeStamp) public view returns (bytes memory){\r\n        bytes32 _encryptedEmail = keccak256(abi.encodePacked(_email));\r\n        bytes32 _encryptedPreview = keccak256(abi.encodePacked(_previewName));\r\n        bytes32 _combine = keccak256(abi.encodePacked(_encryptedEmail,_encryptedPreview,_timeStamp));\r\n        return projectCenter[_combine];\r\n    }\r\n\r\n    function showSubscription(string memory _email,string memory _previewName, uint _timeStamp) public view returns (subscription memory){\r\n        bytes32 _encryptedEmail = keccak256(abi.encodePacked(_email));\r\n        bytes32 _encryptedPreview = keccak256(abi.encodePacked(_previewName));\r\n        bytes32 _combine = keccak256(abi.encodePacked(_encryptedEmail,_encryptedPreview,_timeStamp));\r\n        return subscribe[_combine];\r\n    }\r\n\r\n    function changeDocumentOwnership(bytes32 _email, bytes32 _previewName, string memory _fileFrom,bytes32 _onePagerCombine, string memory _userName, string memory _fileName, uint _timeOfUpload) public onlyOwner {\r\n        bytes32 _combine = keccak256(abi.encodePacked(_email,_previewName,_timeOfUpload));\r\n        if(keccak256(abi.encodePacked(_fileFrom)) == keccak256(abi.encodePacked(\"onePager\"))){\r\n            bytes memory _uri = onePager[_combine];\r\n            require(_uri.length != 0,\"Wrong Input\");\r\n            createOnePager(_onePagerCombine,_uri,_userName,_fileName,_timeOfUpload);\r\n            delete onePager[_combine];\r\n\t\t}\r\n        else if(keccak256(abi.encodePacked(_fileFrom)) == keccak256(abi.encodePacked(\"story\"))){\r\n            bytes memory _uri = story[_combine];\r\n            require(_uri.length != 0,\"Wrong Input\");\r\n            createStory(_onePagerCombine,_uri,_userName,_fileName,_timeOfUpload);\r\n            delete story[_combine];\r\n        }\r\n        else if(keccak256(abi.encodePacked(_fileFrom)) == keccak256(abi.encodePacked(\"sampleScript\"))){\r\n            bytes memory _uri = sampleScript[_combine];\r\n            require(_uri.length != 0,\"Wrong Input\");\r\n            createSampleScript(_onePagerCombine,_uri,_userName,_fileName,_timeOfUpload);\r\n            delete sampleScript[_combine];\r\n        }\r\n        else if(keccak256(abi.encodePacked(_fileFrom)) == keccak256(abi.encodePacked(\"fullScript\"))){\r\n            bytes memory _uri = fullScript[_combine];\r\n            require(_uri.length != 0,\"Wrong Input\");\r\n            createFullScript(_onePagerCombine,_uri,_userName,_fileName,_timeOfUpload);\r\n            delete fullScript[_combine];\r\n        }\r\n        else if(keccak256(abi.encodePacked(_fileFrom)) == keccak256(abi.encodePacked(\"footage\"))){\r\n            bytes memory _uri = footage[_combine];\r\n            require(_uri.length != 0,\"Wrong Input\");\r\n            createFootage(_onePagerCombine,_uri,_userName,_fileName,_timeOfUpload);\r\n            delete footage[_combine];\r\n        }\r\n        else if(keccak256(abi.encodePacked(_fileFrom)) == keccak256(abi.encodePacked(\"pitchDeck\"))){\r\n            bytes memory _uri = pitchDeck[_combine];\r\n            require(_uri.length != 0,\"Wrong Input\");\r\n            createPitchDeck(_onePagerCombine,_uri,_userName,_fileName,_timeOfUpload);\r\n            delete pitchDeck[_combine];\r\n        }\r\n        else if(keccak256(abi.encodePacked(_fileFrom)) == keccak256(abi.encodePacked(\"sampleNarration\"))){\r\n            bytes memory _uri = sampleNarration[_combine];\r\n            require(_uri.length != 0,\"Wrong Input\");\r\n            createSampleNarration(_onePagerCombine,_uri,_userName,_fileName,_timeOfUpload);\r\n            delete sampleNarration[_combine];\r\n        }\r\n        else if(keccak256(abi.encodePacked(_fileFrom)) == keccak256(abi.encodePacked(\"fullNarration\"))){\r\n            bytes memory _uri = fullNarration[_combine];\r\n            require(_uri.length != 0,\"Wrong Input\");\r\n            createFullNarration(_onePagerCombine,_uri,_userName,_fileName,_timeOfUpload);\r\n            delete fullNarration[_combine];\r\n        }\r\n        else if(keccak256(abi.encodePacked(_fileFrom)) == keccak256(abi.encodePacked(\"scriptAnalysis\"))){\r\n            bytes memory _uri = scriptAnalysis[_combine];\r\n            require(_uri.length != 0,\"Wrong Input\");\r\n            createScriptAnalysis(_onePagerCombine,_uri,_userName,_fileName,_timeOfUpload);\r\n            delete scriptAnalysis[_combine];\r\n        }\r\n        else if(keccak256(abi.encodePacked(_fileFrom)) == keccak256(abi.encodePacked(\"characterIntroduction\"))){\r\n            bytes memory _uri = characterIntroduction[_combine];\r\n            require(_uri.length != 0,\"Wrong Input\");\r\n            createCharacterIntro(_onePagerCombine,_uri,_userName,_fileName,_timeOfUpload);\r\n            delete characterIntroduction[_combine];\r\n        }\r\n    }\r\n\r\n    function remove() public {\r\n        require(msg.sender == owner(), \"msg.sender is not the owner\");\r\n        selfdestruct(payable(owner()));\r\n    }\r\n\r\n    fallback() external payable{\r\n        payable(owner()).transfer(msg.value); \r\n    } \r\n    receive() external payable{\r\n        payable(owner()).transfer(msg.value); \r\n    }\r\n    \r\n}\r\n\r\n     ",
  "sourcePath": "C:\\Users\\RAJDEEP\\Desktop\\JOB\\My Next Film Pvt. Ltd\\Project\\IdeaMall\\contracts\\IdeaMall.sol",
  "compiler": {
    "name": "solc",
    "version": "0.8.7+commit.e28d00a7.Emscripten.clang"
  },
  "schemaVersion": "3.4.3",
  "updatedAt": "2022-12-29T10:40:02.499Z",
  "networkType": "ethereum",
  "devdoc": {
    "kind": "dev",
    "methods": {
      "owner()": {
        "details": "Returns the address of the current owner."
      },
      "renounceOwnership()": {
        "details": "Leaves the contract without owner. It will not be possible to call `onlyOwner` functions anymore. Can only be called by the current owner. NOTE: Renouncing ownership will leave the contract without an owner, thereby removing any functionality that is only available to the owner."
      },
      "transferOwnership(address)": {
        "details": "Transfers ownership of the contract to a new account (`newOwner`). Can only be called by the current owner."
      }
    },
    "version": 1
  },
  "userdoc": {
    "kind": "user",
    "methods": {},
    "version": 1
  }
}